{
  "_format": "hh-sol-artifact-1",
  "contractName": "Forwarder",
  "sourceName": "contracts/Forwarder.sol",
  "abi": [
    {
      "anonymous": false,
      "inputs": [
        {
          "indexed": false,
          "internalType": "address",
          "name": "previousAdmin",
          "type": "address"
        },
        {
          "indexed": false,
          "internalType": "address",
          "name": "newAdmin",
          "type": "address"
        }
      ],
      "name": "AdminChanged",
      "type": "event"
    },
    {
      "anonymous": false,
      "inputs": [
        {
          "indexed": true,
          "internalType": "address",
          "name": "beacon",
          "type": "address"
        }
      ],
      "name": "BeaconUpgraded",
      "type": "event"
    },
    {
      "anonymous": false,
      "inputs": [
        {
          "indexed": true,
          "internalType": "address",
          "name": "previousOwner",
          "type": "address"
        },
        {
          "indexed": true,
          "internalType": "address",
          "name": "newOwner",
          "type": "address"
        }
      ],
      "name": "OwnershipTransferred",
      "type": "event"
    },
    {
      "anonymous": false,
      "inputs": [
        {
          "indexed": true,
          "internalType": "address",
          "name": "implementation",
          "type": "address"
        }
      ],
      "name": "Upgraded",
      "type": "event"
    },
    {
      "inputs": [],
      "name": "_TYPE_HASH",
      "outputs": [
        {
          "internalType": "bytes32",
          "name": "",
          "type": "bytes32"
        }
      ],
      "stateMutability": "view",
      "type": "function"
    },
    {
      "inputs": [
        {
          "components": [
            {
              "internalType": "address",
              "name": "from",
              "type": "address"
            },
            {
              "internalType": "address",
              "name": "to",
              "type": "address"
            },
            {
              "internalType": "uint256",
              "name": "value",
              "type": "uint256"
            },
            {
              "internalType": "uint256",
              "name": "nonce",
              "type": "uint256"
            },
            {
              "internalType": "bytes",
              "name": "data",
              "type": "bytes"
            }
          ],
          "internalType": "struct Forwarder.ForwardRequest",
          "name": "req",
          "type": "tuple"
        },
        {
          "internalType": "bytes",
          "name": "signature",
          "type": "bytes"
        }
      ],
      "name": "execute",
      "outputs": [
        {
          "internalType": "bool",
          "name": "",
          "type": "bool"
        },
        {
          "internalType": "bytes",
          "name": "",
          "type": "bytes"
        }
      ],
      "stateMutability": "payable",
      "type": "function"
    },
    {
      "inputs": [
        {
          "internalType": "address",
          "name": "from",
          "type": "address"
        },
        {
          "internalType": "address",
          "name": "to",
          "type": "address"
        },
        {
          "internalType": "uint256",
          "name": "value",
          "type": "uint256"
        },
        {
          "internalType": "uint256",
          "name": "nonce",
          "type": "uint256"
        },
        {
          "internalType": "bytes",
          "name": "data",
          "type": "bytes"
        }
      ],
      "name": "getDigest",
      "outputs": [
        {
          "internalType": "bytes32",
          "name": "digest",
          "type": "bytes32"
        }
      ],
      "stateMutability": "view",
      "type": "function"
    },
    {
      "inputs": [
        {
          "internalType": "address",
          "name": "from",
          "type": "address"
        }
      ],
      "name": "getNonce",
      "outputs": [
        {
          "internalType": "uint256",
          "name": "",
          "type": "uint256"
        }
      ],
      "stateMutability": "view",
      "type": "function"
    },
    {
      "inputs": [],
      "name": "initialize",
      "outputs": [],
      "stateMutability": "payable",
      "type": "function"
    },
    {
      "inputs": [],
      "name": "owner",
      "outputs": [
        {
          "internalType": "address",
          "name": "",
          "type": "address"
        }
      ],
      "stateMutability": "view",
      "type": "function"
    },
    {
      "inputs": [],
      "name": "renounceOwnership",
      "outputs": [],
      "stateMutability": "nonpayable",
      "type": "function"
    },
    {
      "inputs": [
        {
          "internalType": "address",
          "name": "newOwner",
          "type": "address"
        }
      ],
      "name": "transferOwnership",
      "outputs": [],
      "stateMutability": "nonpayable",
      "type": "function"
    },
    {
      "inputs": [
        {
          "internalType": "address",
          "name": "newImplementation",
          "type": "address"
        }
      ],
      "name": "upgradeTo",
      "outputs": [],
      "stateMutability": "nonpayable",
      "type": "function"
    },
    {
      "inputs": [
        {
          "internalType": "address",
          "name": "newImplementation",
          "type": "address"
        },
        {
          "internalType": "bytes",
          "name": "data",
          "type": "bytes"
        }
      ],
      "name": "upgradeToAndCall",
      "outputs": [],
      "stateMutability": "payable",
      "type": "function"
    },
    {
      "inputs": [
        {
          "components": [
            {
              "internalType": "address",
              "name": "from",
              "type": "address"
            },
            {
              "internalType": "address",
              "name": "to",
              "type": "address"
            },
            {
              "internalType": "uint256",
              "name": "value",
              "type": "uint256"
            },
            {
              "internalType": "uint256",
              "name": "nonce",
              "type": "uint256"
            },
            {
              "internalType": "bytes",
              "name": "data",
              "type": "bytes"
            }
          ],
          "internalType": "struct Forwarder.ForwardRequest",
          "name": "req",
          "type": "tuple"
        },
        {
          "internalType": "bytes",
          "name": "signature",
          "type": "bytes"
        }
      ],
      "name": "verify",
      "outputs": [
        {
          "internalType": "bool",
          "name": "",
          "type": "bool"
        }
      ],
      "stateMutability": "view",
      "type": "function"
    }
  ],
  "bytecode": "0x60a06040523073ffffffffffffffffffffffffffffffffffffffff1660809073ffffffffffffffffffffffffffffffffffffffff1660601b81525034801561004657600080fd5b5060805160601c61312961007a600039600081816102ba015281816103490152818161046901526104f801526131296000f3fe60806040526004361061009c5760003560e01c806369b37f4d1161006457806369b37f4d1461018b578063715018a6146101c85780637507bd7a146101df5780638129fc1c146102105780638da5cb5b1461021a578063f2fde38b146102455761009c565b80632d0335ab146100a15780633659cfe6146100de5780634f1ef286146101075780635b4dbfcc146101235780635d2dab0b14610160575b600080fd5b3480156100ad57600080fd5b506100c860048036038101906100c3919061205d565b61026e565b6040516100d59190612981565b60405180910390f35b3480156100ea57600080fd5b506101056004803603810190610100919061205d565b6102b8565b005b610121600480360381019061011c9190612115565b610467565b005b34801561012f57600080fd5b5061014a60048036038101906101459190612169565b6105a4565b6040516101579190612600565b60405180910390f35b34801561016c57600080fd5b5061017561073c565b604051610182919061264b565b60405180910390f35b34801561019757600080fd5b506101b260048036038101906101ad9190612086565b610760565b6040516101bf919061264b565b60405180910390f35b3480156101d457600080fd5b506101dd6107cd565b005b6101f960048036038101906101f49190612169565b610855565b60405161020792919061261b565b60405180910390f35b610218610a79565b005b34801561022657600080fd5b5061022f610bd6565b60405161023c91906125e5565b60405180910390f35b34801561025157600080fd5b5061026c6004803603810190610267919061205d565b610c00565b005b600061012f60008373ffffffffffffffffffffffffffffffffffffffff1673ffffffffffffffffffffffffffffffffffffffff168152602001908152602001600020549050919050565b7f000000000000000000000000000000000000000000000000000000000000000073ffffffffffffffffffffffffffffffffffffffff163073ffffffffffffffffffffffffffffffffffffffff161415610347576040517f08c379a000000000000000000000000000000000000000000000000000000000815260040161033e90612821565b60405180910390fd5b7f000000000000000000000000000000000000000000000000000000000000000073ffffffffffffffffffffffffffffffffffffffff16610386610cf8565b73ffffffffffffffffffffffffffffffffffffffff16146103dc576040517f08c379a00000000000000000000000000000000000000000000000000000000081526004016103d390612861565b60405180910390fd5b6103e581610d4f565b61046481600067ffffffffffffffff81111561042a577f4e487b7100000000000000000000000000000000000000000000000000000000600052604160045260246000fd5b6040519080825280601f01601f19166020018201604052801561045c5781602001600182028036833780820191505090505b506000610dc7565b50565b7f000000000000000000000000000000000000000000000000000000000000000073ffffffffffffffffffffffffffffffffffffffff163073ffffffffffffffffffffffffffffffffffffffff1614156104f6576040517f08c379a00000000000000000000000000000000000000000000000000000000081526004016104ed90612821565b60405180910390fd5b7f000000000000000000000000000000000000000000000000000000000000000073ffffffffffffffffffffffffffffffffffffffff16610535610cf8565b73ffffffffffffffffffffffffffffffffffffffff161461058b576040517f08c379a000000000000000000000000000000000000000000000000000000000815260040161058290612861565b60405180910390fd5b61059482610d4f565b6105a082826001610dc7565b5050565b6000806106328560000160208101906105bd919061205d565b8660200160208101906105d0919061205d565b876040013588606001358980608001906105ea919061299c565b8080601f016020809104026020016040519081016040528093929190818152602001838380828437600081840152601f19601f82011690508083019250505050505050610760565b9050600061068d85858080601f016020809104026020016040519081016040528093929190818152602001838380828437600081840152601f19601f8201169050808301925050505050505083610f9890919063ffffffff16565b9050856060013561012f60008860000160208101906106ac919061205d565b73ffffffffffffffffffffffffffffffffffffffff1673ffffffffffffffffffffffffffffffffffffffff168152602001908152602001600020541480156107315750856000016020810190610702919061205d565b73ffffffffffffffffffffffffffffffffffffffff168173ffffffffffffffffffffffffffffffffffffffff16145b925050509392505050565b7f37f69988ed101a80359fd1bf023dce4ccbafcaf14b772646dec9ad4f0d6bc1e281565b60006107c27f37f69988ed101a80359fd1bf023dce4ccbafcaf14b772646dec9ad4f0d6bc1e28787878787805190602001206040516020016107a796959493929190612666565b60405160208183030381529060405280519060200120610fbf565b905095945050505050565b6107d5610fd9565b73ffffffffffffffffffffffffffffffffffffffff166107f3610bd6565b73ffffffffffffffffffffffffffffffffffffffff1614610849576040517f08c379a000000000000000000000000000000000000000000000000000000000815260040161084090612921565b60405180910390fd5b6108536000610fe1565b565b600060606002606554141561089f576040517f08c379a000000000000000000000000000000000000000000000000000000000815260040161089690612961565b60405180910390fd5b60026065819055506108b28585856105a4565b6108f1576040517f08c379a00000000000000000000000000000000000000000000000000000000081526004016108e8906127c1565b60405180910390fd5b600185606001356109029190612a97565b61012f600087600001602081019061091a919061205d565b73ffffffffffffffffffffffffffffffffffffffff1673ffffffffffffffffffffffffffffffffffffffff1681526020019081526020016000208190555060008086602001602081019061096e919061205d565b73ffffffffffffffffffffffffffffffffffffffff168760400135888060800190610999919061299c565b8a60000160208101906109ac919061205d565b6040516020016109be9392919061256d565b6040516020818303038152906040526040516109da9190612597565b60006040518083038185875af1925050503d8060008114610a17576040519150601f19603f3d011682016040523d82523d6000602084013e610a1c565b606091505b509150915081610a61576040517f08c379a0000000000000000000000000000000000000000000000000000000008152600401610a58906128e1565b60405180910390fd5b81819350935050506001606581905550935093915050565b600060019054906101000a900460ff1680610a9f575060008054906101000a900460ff16155b610ade576040517f08c379a0000000000000000000000000000000000000000000000000000000008152600401610ad5906128a1565b60405180910390fd5b60008060019054906101000a900460ff161590508015610b2e576001600060016101000a81548160ff02191690831515021790555060016000806101000a81548160ff0219169083151502179055505b610b366110a7565b610b3e611188565b610bb26040518060400160405280600981526020017f466f7277617264657200000000000000000000000000000000000000000000008152506040518060400160405280600381526020017f312e300000000000000000000000000000000000000000000000000000000000815250611271565b8015610bd35760008060016101000a81548160ff0219169083151502179055505b50565b600060fd60009054906101000a900473ffffffffffffffffffffffffffffffffffffffff16905090565b610c08610fd9565b73ffffffffffffffffffffffffffffffffffffffff16610c26610bd6565b73ffffffffffffffffffffffffffffffffffffffff1614610c7c576040517f08c379a0000000000000000000000000000000000000000000000000000000008152600401610c7390612921565b60405180910390fd5b600073ffffffffffffffffffffffffffffffffffffffff168173ffffffffffffffffffffffffffffffffffffffff161415610cec576040517f08c379a0000000000000000000000000000000000000000000000000000000008152600401610ce390612801565b60405180910390fd5b610cf581610fe1565b50565b6000610d267f360894a13ba1a3210667c828492db98dca3e2076cc3735a920a3ca505d382bbc60001b611356565b60000160009054906101000a900473ffffffffffffffffffffffffffffffffffffffff16905090565b610d57610bd6565b73ffffffffffffffffffffffffffffffffffffffff163373ffffffffffffffffffffffffffffffffffffffff1614610dc4576040517f08c379a0000000000000000000000000000000000000000000000000000000008152600401610dbb90612881565b60405180910390fd5b50565b6000610dd1610cf8565b9050610ddc84611360565b600083511180610de95750815b15610dfa57610df88484611419565b505b6000610e287f4910fdfa16fed3260ed0e7147f7cc6da11a60208b5b9406d12a635614ffd914360001b6114fd565b90508060000160009054906101000a900460ff16610f915760018160000160006101000a81548160ff021916908315150217905550610ef48583604051602401610e7291906125e5565b6040516020818303038152906040527f3659cfe6000000000000000000000000000000000000000000000000000000007bffffffffffffffffffffffffffffffffffffffffffffffffffffffff19166020820180517bffffffffffffffffffffffffffffffffffffffffffffffffffffffff8381831617835250505050611419565b5060008160000160006101000a81548160ff021916908315150217905550610f1a610cf8565b73ffffffffffffffffffffffffffffffffffffffff168273ffffffffffffffffffffffffffffffffffffffff1614610f87576040517f08c379a0000000000000000000000000000000000000000000000000000000008152600401610f7e906127e1565b60405180910390fd5b610f9085611507565b5b5050505050565b6000806000610fa78585611556565b91509150610fb4816115d9565b819250505092915050565b6000610fd2610fcc61192a565b8361196a565b9050919050565b600033905090565b600060fd60009054906101000a900473ffffffffffffffffffffffffffffffffffffffff1690508160fd60006101000a81548173ffffffffffffffffffffffffffffffffffffffff021916908373ffffffffffffffffffffffffffffffffffffffff1602179055508173ffffffffffffffffffffffffffffffffffffffff168173ffffffffffffffffffffffffffffffffffffffff167f8be0079c531659141344cd1fd0a4f28419497f9722a3daafe3b4186f6b6457e060405160405180910390a35050565b600060019054906101000a900460ff16806110cd575060008054906101000a900460ff16155b61110c576040517f08c379a0000000000000000000000000000000000000000000000000000000008152600401611103906128a1565b60405180910390fd5b60008060019054906101000a900460ff16159050801561115c576001600060016101000a81548160ff02191690831515021790555060016000806101000a81548160ff0219169083151502179055505b61116461199d565b80156111855760008060016101000a81548160ff0219169083151502179055505b50565b600060019054906101000a900460ff16806111ae575060008054906101000a900460ff16155b6111ed576040517f08c379a00000000000000000000000000000000000000000000000000000000081526004016111e4906128a1565b60405180910390fd5b60008060019054906101000a900460ff16159050801561123d576001600060016101000a81548160ff02191690831515021790555060016000806101000a81548160ff0219169083151502179055505b611245611a7e565b61124d611b57565b801561126e5760008060016101000a81548160ff0219169083151502179055505b50565b600060019054906101000a900460ff1680611297575060008054906101000a900460ff16155b6112d6576040517f08c379a00000000000000000000000000000000000000000000000000000000081526004016112cd906128a1565b60405180910390fd5b60008060019054906101000a900460ff161590508015611326576001600060016101000a81548160ff02191690831515021790555060016000806101000a81548160ff0219169083151502179055505b6113308383611c40565b80156113515760008060016101000a81548160ff0219169083151502179055505b505050565b6000819050919050565b61136981611d43565b6113a8576040517f08c379a000000000000000000000000000000000000000000000000000000000815260040161139f90612901565b60405180910390fd5b806113d57f360894a13ba1a3210667c828492db98dca3e2076cc3735a920a3ca505d382bbc60001b611356565b60000160006101000a81548173ffffffffffffffffffffffffffffffffffffffff021916908373ffffffffffffffffffffffffffffffffffffffff16021790555050565b606061142483611d43565b611463576040517f08c379a000000000000000000000000000000000000000000000000000000000815260040161145a90612941565b60405180910390fd5b6000808473ffffffffffffffffffffffffffffffffffffffff168460405161148b9190612597565b600060405180830381855af49150503d80600081146114c6576040519150601f19603f3d011682016040523d82523d6000602084013e6114cb565b606091505b50915091506114f382826040518060600160405280602781526020016130cd60279139611d56565b9250505092915050565b6000819050919050565b61151081611360565b8073ffffffffffffffffffffffffffffffffffffffff167fbc7cd75a20ee27fd9adebab32041f755214dbc6bffa90cc0225b39da2e5c2d3b60405160405180910390a250565b6000806041835114156115985760008060006020860151925060408601519150606086015160001a905061158c87828585611dbd565b945094505050506115d2565b6040835114156115c95760008060208501519150604085015190506115be868383611eca565b9350935050506115d2565b60006002915091505b9250929050565b60006004811115611613577f4e487b7100000000000000000000000000000000000000000000000000000000600052602160045260246000fd5b81600481111561164c577f4e487b7100000000000000000000000000000000000000000000000000000000600052602160045260246000fd5b141561165757611927565b60016004811115611691577f4e487b7100000000000000000000000000000000000000000000000000000000600052602160045260246000fd5b8160048111156116ca577f4e487b7100000000000000000000000000000000000000000000000000000000600052602160045260246000fd5b141561170b576040517f08c379a000000000000000000000000000000000000000000000000000000000815260040161170290612781565b60405180910390fd5b60026004811115611745577f4e487b7100000000000000000000000000000000000000000000000000000000600052602160045260246000fd5b81600481111561177e577f4e487b7100000000000000000000000000000000000000000000000000000000600052602160045260246000fd5b14156117bf576040517f08c379a00000000000000000000000000000000000000000000000000000000081526004016117b6906127a1565b60405180910390fd5b600360048111156117f9577f4e487b7100000000000000000000000000000000000000000000000000000000600052602160045260246000fd5b816004811115611832577f4e487b7100000000000000000000000000000000000000000000000000000000600052602160045260246000fd5b1415611873576040517f08c379a000000000000000000000000000000000000000000000000000000000815260040161186a90612841565b60405180910390fd5b6004808111156118ac577f4e487b7100000000000000000000000000000000000000000000000000000000600052602160045260246000fd5b8160048111156118e5577f4e487b7100000000000000000000000000000000000000000000000000000000600052602160045260246000fd5b1415611926576040517f08c379a000000000000000000000000000000000000000000000000000000000815260040161191d906128c1565b60405180910390fd5b5b50565b60006119657f8b73c3c69bb8fe3d512ecc4cf759cc79239f7b179b0ffacaa9a75d522b39400f611958611f18565b611960611f22565b611f2c565b905090565b6000828260405160200161197f9291906125ae565b60405160208183030381529060405280519060200120905092915050565b600060019054906101000a900460ff16806119c3575060008054906101000a900460ff16155b611a02576040517f08c379a00000000000000000000000000000000000000000000000000000000081526004016119f9906128a1565b60405180910390fd5b60008060019054906101000a900460ff161590508015611a52576001600060016101000a81548160ff02191690831515021790555060016000806101000a81548160ff0219169083151502179055505b60016065819055508015611a7b5760008060016101000a81548160ff0219169083151502179055505b50565b600060019054906101000a900460ff1680611aa4575060008054906101000a900460ff16155b611ae3576040517f08c379a0000000000000000000000000000000000000000000000000000000008152600401611ada906128a1565b60405180910390fd5b60008060019054906101000a900460ff161590508015611b33576001600060016101000a81548160ff02191690831515021790555060016000806101000a81548160ff0219169083151502179055505b8015611b545760008060016101000a81548160ff0219169083151502179055505b50565b600060019054906101000a900460ff1680611b7d575060008054906101000a900460ff16155b611bbc576040517f08c379a0000000000000000000000000000000000000000000000000000000008152600401611bb3906128a1565b60405180910390fd5b60008060019054906101000a900460ff161590508015611c0c576001600060016101000a81548160ff02191690831515021790555060016000806101000a81548160ff0219169083151502179055505b611c1c611c17610fd9565b610fe1565b8015611c3d5760008060016101000a81548160ff0219169083151502179055505b50565b600060019054906101000a900460ff1680611c66575060008054906101000a900460ff16155b611ca5576040517f08c379a0000000000000000000000000000000000000000000000000000000008152600401611c9c906128a1565b60405180910390fd5b60008060019054906101000a900460ff161590508015611cf5576001600060016101000a81548160ff02191690831515021790555060016000806101000a81548160ff0219169083151502179055505b600083805190602001209050600083805190602001209050816097819055508060988190555050508015611d3e5760008060016101000a81548160ff0219169083151502179055505b505050565b600080823b905060008111915050919050565b60608315611d6657829050611db6565b600083511115611d795782518084602001fd5b816040517f08c379a0000000000000000000000000000000000000000000000000000000008152600401611dad919061275f565b60405180910390fd5b9392505050565b6000807f7fffffffffffffffffffffffffffffff5d576e7357a4501ddfe92f46681b20a08360001c1115611df8576000600391509150611ec1565b601b8560ff1614158015611e105750601c8560ff1614155b15611e22576000600491509150611ec1565b600060018787878760405160008152602001604052604051611e47949392919061271a565b6020604051602081039080840390855afa158015611e69573d6000803e3d6000fd5b505050602060405103519050600073ffffffffffffffffffffffffffffffffffffffff168173ffffffffffffffffffffffffffffffffffffffff161415611eb857600060019250925050611ec1565b80600092509250505b94509492505050565b6000806000807f7fffffffffffffffffffffffffffffffffffffffffffffffffffffffffffffff85169150601b8560ff1c019050611f0a87828885611dbd565b935093505050935093915050565b6000609754905090565b6000609854905090565b60008383834630604051602001611f479594939291906126c7565b6040516020818303038152906040528051906020012090509392505050565b6000611f79611f7484612a18565b6129f3565b905082815260208101848484011115611f9157600080fd5b611f9c848285612b4c565b509392505050565b600081359050611fb38161309e565b92915050565b60008083601f840112611fcb57600080fd5b8235905067ffffffffffffffff811115611fe457600080fd5b602083019150836001820283011115611ffc57600080fd5b9250929050565b600082601f83011261201457600080fd5b8135612024848260208601611f66565b91505092915050565b600060a0828403121561203f57600080fd5b81905092915050565b600081359050612057816130b5565b92915050565b60006020828403121561206f57600080fd5b600061207d84828501611fa4565b91505092915050565b600080600080600060a0868803121561209e57600080fd5b60006120ac88828901611fa4565b95505060206120bd88828901611fa4565b94505060406120ce88828901612048565b93505060606120df88828901612048565b925050608086013567ffffffffffffffff8111156120fc57600080fd5b61210888828901612003565b9150509295509295909350565b6000806040838503121561212857600080fd5b600061213685828601611fa4565b925050602083013567ffffffffffffffff81111561215357600080fd5b61215f85828601612003565b9150509250929050565b60008060006040848603121561217e57600080fd5b600084013567ffffffffffffffff81111561219857600080fd5b6121a48682870161202d565b935050602084013567ffffffffffffffff8111156121c157600080fd5b6121cd86828701611fb9565b92509250509250925092565b6121e281612aed565b82525050565b6121f96121f482612aed565b612bbf565b82525050565b61220881612aff565b82525050565b61221781612b0b565b82525050565b61222e61222982612b0b565b612bd1565b82525050565b60006122408385612a70565b935061224d838584612b4c565b82840190509392505050565b600061226482612a49565b61226e8185612a5f565b935061227e818560208601612b5b565b61228781612c4b565b840191505092915050565b600061229d82612a49565b6122a78185612a70565b93506122b7818560208601612b5b565b80840191505092915050565b60006122ce82612a54565b6122d88185612a7b565b93506122e8818560208601612b5b565b6122f181612c4b565b840191505092915050565b6000612309601883612a7b565b915061231482612c69565b602082019050919050565b600061232c601f83612a7b565b915061233782612c92565b602082019050919050565b600061234f602b83612a7b565b915061235a82612cbb565b604082019050919050565b6000612372602f83612a7b565b915061237d82612d0a565b604082019050919050565b6000612395602683612a7b565b91506123a082612d59565b604082019050919050565b60006123b8600283612a8c565b91506123c382612da8565b600282019050919050565b60006123db602c83612a7b565b91506123e682612dd1565b604082019050919050565b60006123fe602283612a7b565b915061240982612e20565b604082019050919050565b6000612421602c83612a7b565b915061242c82612e6f565b604082019050919050565b6000612444600783612a7b565b915061244f82612ebe565b602082019050919050565b6000612467602e83612a7b565b915061247282612ee7565b604082019050919050565b600061248a602283612a7b565b915061249582612f36565b604082019050919050565b60006124ad600683612a7b565b91506124b882612f85565b602082019050919050565b60006124d0602d83612a7b565b91506124db82612fae565b604082019050919050565b60006124f3602083612a7b565b91506124fe82612ffd565b602082019050919050565b6000612516602683612a7b565b915061252182613026565b604082019050919050565b6000612539601f83612a7b565b915061254482613075565b602082019050919050565b61255881612b35565b82525050565b61256781612b3f565b82525050565b600061257a828587612234565b915061258682846121e8565b601482019150819050949350505050565b60006125a38284612292565b915081905092915050565b60006125b9826123ab565b91506125c5828561221d565b6020820191506125d5828461221d565b6020820191508190509392505050565b60006020820190506125fa60008301846121d9565b92915050565b600060208201905061261560008301846121ff565b92915050565b600060408201905061263060008301856121ff565b81810360208301526126428184612259565b90509392505050565b6000602082019050612660600083018461220e565b92915050565b600060c08201905061267b600083018961220e565b61268860208301886121d9565b61269560408301876121d9565b6126a2606083018661254f565b6126af608083018561254f565b6126bc60a083018461220e565b979650505050505050565b600060a0820190506126dc600083018861220e565b6126e9602083018761220e565b6126f6604083018661220e565b612703606083018561254f565b61271060808301846121d9565b9695505050505050565b600060808201905061272f600083018761220e565b61273c602083018661255e565b612749604083018561220e565b612756606083018461220e565b95945050505050565b6000602082019050818103600083015261277981846122c3565b905092915050565b6000602082019050818103600083015261279a816122fc565b9050919050565b600060208201905081810360008301526127ba8161231f565b9050919050565b600060208201905081810360008301526127da81612342565b9050919050565b600060208201905081810360008301526127fa81612365565b9050919050565b6000602082019050818103600083015261281a81612388565b9050919050565b6000602082019050818103600083015261283a816123ce565b9050919050565b6000602082019050818103600083015261285a816123f1565b9050919050565b6000602082019050818103600083015261287a81612414565b9050919050565b6000602082019050818103600083015261289a81612437565b9050919050565b600060208201905081810360008301526128ba8161245a565b9050919050565b600060208201905081810360008301526128da8161247d565b9050919050565b600060208201905081810360008301526128fa816124a0565b9050919050565b6000602082019050818103600083015261291a816124c3565b9050919050565b6000602082019050818103600083015261293a816124e6565b9050919050565b6000602082019050818103600083015261295a81612509565b9050919050565b6000602082019050818103600083015261297a8161252c565b9050919050565b6000602082019050612996600083018461254f565b92915050565b600080833560016020038436030381126129b557600080fd5b80840192508235915067ffffffffffffffff8211156129d357600080fd5b6020830192506001820236038313156129eb57600080fd5b509250929050565b60006129fd612a0e565b9050612a098282612b8e565b919050565b6000604051905090565b600067ffffffffffffffff821115612a3357612a32612c1c565b5b612a3c82612c4b565b9050602081019050919050565b600081519050919050565b600081519050919050565b600082825260208201905092915050565b600081905092915050565b600082825260208201905092915050565b600081905092915050565b6000612aa282612b35565b9150612aad83612b35565b9250827fffffffffffffffffffffffffffffffffffffffffffffffffffffffffffffffff03821115612ae257612ae1612bed565b5b828201905092915050565b6000612af882612b15565b9050919050565b60008115159050919050565b6000819050919050565b600073ffffffffffffffffffffffffffffffffffffffff82169050919050565b6000819050919050565b600060ff82169050919050565b82818337600083830152505050565b60005b83811015612b79578082015181840152602081019050612b5e565b83811115612b88576000848401525b50505050565b612b9782612c4b565b810181811067ffffffffffffffff82111715612bb657612bb5612c1c565b5b80604052505050565b6000612bca82612bdb565b9050919050565b6000819050919050565b6000612be682612c5c565b9050919050565b7f4e487b7100000000000000000000000000000000000000000000000000000000600052601160045260246000fd5b7f4e487b7100000000000000000000000000000000000000000000000000000000600052604160045260246000fd5b6000601f19601f8301169050919050565b60008160601b9050919050565b7f45434453413a20696e76616c6964207369676e61747572650000000000000000600082015250565b7f45434453413a20696e76616c6964207369676e6174757265206c656e67746800600082015250565b7f466f727761726465723a207369676e617475726520646f6573206e6f74206d6160008201527f7463682072657175657374000000000000000000000000000000000000000000602082015250565b7f45524331393637557067726164653a207570677261646520627265616b73206660008201527f7572746865722075706772616465730000000000000000000000000000000000602082015250565b7f4f776e61626c653a206e6577206f776e657220697320746865207a65726f206160008201527f6464726573730000000000000000000000000000000000000000000000000000602082015250565b7f1901000000000000000000000000000000000000000000000000000000000000600082015250565b7f46756e6374696f6e206d7573742062652063616c6c6564207468726f7567682060008201527f64656c656761746563616c6c0000000000000000000000000000000000000000602082015250565b7f45434453413a20696e76616c6964207369676e6174757265202773272076616c60008201527f7565000000000000000000000000000000000000000000000000000000000000602082015250565b7f46756e6374696f6e206d7573742062652063616c6c6564207468726f7567682060008201527f6163746976652070726f78790000000000000000000000000000000000000000602082015250565b7f6e6f206175746800000000000000000000000000000000000000000000000000600082015250565b7f496e697469616c697a61626c653a20636f6e747261637420697320616c72656160008201527f647920696e697469616c697a6564000000000000000000000000000000000000602082015250565b7f45434453413a20696e76616c6964207369676e6174757265202776272076616c60008201527f7565000000000000000000000000000000000000000000000000000000000000602082015250565b7f6661696c65640000000000000000000000000000000000000000000000000000600082015250565b7f455243313936373a206e657720696d706c656d656e746174696f6e206973206e60008201527f6f74206120636f6e747261637400000000000000000000000000000000000000602082015250565b7f4f776e61626c653a2063616c6c6572206973206e6f7420746865206f776e6572600082015250565b7f416464726573733a2064656c65676174652063616c6c20746f206e6f6e2d636f60008201527f6e74726163740000000000000000000000000000000000000000000000000000602082015250565b7f5265656e7472616e637947756172643a207265656e7472616e742063616c6c00600082015250565b6130a781612aed565b81146130b257600080fd5b50565b6130be81612b35565b81146130c957600080fd5b5056fe416464726573733a206c6f772d6c6576656c2064656c65676174652063616c6c206661696c6564a26469706673582212203f5594f5a3ac4ba86ccf651a18b7677b279d4c37bb06ccd3aa7ba89a5e997b4a64736f6c63430008040033",
  "linkReferences": {},
  "deployedLinkReferences": {}
}