{
  "_format": "hh-sol-artifact-1",
  "contractName": "Forwarder",
  "sourceName": "contracts/Forwarder.sol",
  "abi": [
    {
      "anonymous": false,
      "inputs": [
        {
          "indexed": false,
          "internalType": "address",
          "name": "previousAdmin",
          "type": "address"
        },
        {
          "indexed": false,
          "internalType": "address",
          "name": "newAdmin",
          "type": "address"
        }
      ],
      "name": "AdminChanged",
      "type": "event"
    },
    {
      "anonymous": false,
      "inputs": [
        {
          "indexed": true,
          "internalType": "address",
          "name": "beacon",
          "type": "address"
        }
      ],
      "name": "BeaconUpgraded",
      "type": "event"
    },
    {
      "anonymous": false,
      "inputs": [
        {
          "indexed": true,
          "internalType": "address",
          "name": "previousOwner",
          "type": "address"
        },
        {
          "indexed": true,
          "internalType": "address",
          "name": "newOwner",
          "type": "address"
        }
      ],
      "name": "OwnershipTransferred",
      "type": "event"
    },
    {
      "anonymous": false,
      "inputs": [
        {
          "indexed": true,
          "internalType": "address",
          "name": "implementation",
          "type": "address"
        }
      ],
      "name": "Upgraded",
      "type": "event"
    },
    {
      "inputs": [],
      "name": "_TYPE_HASH",
      "outputs": [
        {
          "internalType": "bytes32",
          "name": "",
          "type": "bytes32"
        }
      ],
      "stateMutability": "view",
      "type": "function"
    },
    {
      "inputs": [
        {
          "components": [
            {
              "internalType": "address",
              "name": "from",
              "type": "address"
            },
            {
              "internalType": "address",
              "name": "to",
              "type": "address"
            },
            {
              "internalType": "uint256",
              "name": "value",
              "type": "uint256"
            },
            {
              "internalType": "uint256",
              "name": "nonce",
              "type": "uint256"
            },
            {
              "internalType": "bytes",
              "name": "data",
              "type": "bytes"
            }
          ],
          "internalType": "struct Forwarder.ForwardRequest",
          "name": "req",
          "type": "tuple"
        },
        {
          "internalType": "bytes",
          "name": "signature",
          "type": "bytes"
        }
      ],
      "name": "execute",
      "outputs": [
        {
          "internalType": "bytes",
          "name": "",
          "type": "bytes"
        }
      ],
      "stateMutability": "payable",
      "type": "function"
    },
    {
      "inputs": [
        {
          "components": [
            {
              "internalType": "address",
              "name": "from",
              "type": "address"
            },
            {
              "internalType": "address",
              "name": "to",
              "type": "address"
            },
            {
              "internalType": "uint256",
              "name": "value",
              "type": "uint256"
            },
            {
              "internalType": "uint256",
              "name": "nonce",
              "type": "uint256"
            },
            {
              "internalType": "bytes",
              "name": "data",
              "type": "bytes"
            }
          ],
          "internalType": "struct Forwarder.ForwardRequest[]",
          "name": "reqs",
          "type": "tuple[]"
        },
        {
          "internalType": "bytes[]",
          "name": "signatures",
          "type": "bytes[]"
        }
      ],
      "name": "executeBatch",
      "outputs": [],
      "stateMutability": "payable",
      "type": "function"
    },
    {
      "inputs": [
        {
          "internalType": "address",
          "name": "from",
          "type": "address"
        },
        {
          "internalType": "address",
          "name": "to",
          "type": "address"
        },
        {
          "internalType": "uint256",
          "name": "value",
          "type": "uint256"
        },
        {
          "internalType": "uint256",
          "name": "nonce",
          "type": "uint256"
        },
        {
          "internalType": "bytes",
          "name": "data",
          "type": "bytes"
        }
      ],
      "name": "getDigest",
      "outputs": [
        {
          "internalType": "bytes32",
          "name": "digest",
          "type": "bytes32"
        }
      ],
      "stateMutability": "view",
      "type": "function"
    },
    {
      "inputs": [
        {
          "internalType": "address",
          "name": "from",
          "type": "address"
        }
      ],
      "name": "getNonce",
      "outputs": [
        {
          "internalType": "uint256",
          "name": "",
          "type": "uint256"
        }
      ],
      "stateMutability": "view",
      "type": "function"
    },
    {
      "inputs": [],
      "name": "initialize",
      "outputs": [],
      "stateMutability": "payable",
      "type": "function"
    },
    {
      "inputs": [
        {
          "internalType": "address",
          "name": "operator",
          "type": "address"
        },
        {
          "internalType": "address",
          "name": "from",
          "type": "address"
        },
        {
          "internalType": "uint256",
          "name": "tokenId",
          "type": "uint256"
        },
        {
          "internalType": "bytes",
          "name": "data",
          "type": "bytes"
        }
      ],
      "name": "onERC721Received",
      "outputs": [
        {
          "internalType": "bytes4",
          "name": "",
          "type": "bytes4"
        }
      ],
      "stateMutability": "pure",
      "type": "function"
    },
    {
      "inputs": [],
      "name": "owner",
      "outputs": [
        {
          "internalType": "address",
          "name": "",
          "type": "address"
        }
      ],
      "stateMutability": "view",
      "type": "function"
    },
    {
      "inputs": [],
      "name": "renounceOwnership",
      "outputs": [],
      "stateMutability": "nonpayable",
      "type": "function"
    },
    {
      "inputs": [
        {
          "internalType": "address payable",
          "name": "to",
          "type": "address"
        },
        {
          "internalType": "uint256",
          "name": "amount",
          "type": "uint256"
        }
      ],
      "name": "transferETH",
      "outputs": [],
      "stateMutability": "nonpayable",
      "type": "function"
    },
    {
      "inputs": [
        {
          "internalType": "address",
          "name": "newOwner",
          "type": "address"
        }
      ],
      "name": "transferOwnership",
      "outputs": [],
      "stateMutability": "nonpayable",
      "type": "function"
    },
    {
      "inputs": [
        {
          "internalType": "address",
          "name": "token",
          "type": "address"
        },
        {
          "internalType": "address",
          "name": "to",
          "type": "address"
        },
        {
          "internalType": "uint256",
          "name": "amount",
          "type": "uint256"
        }
      ],
      "name": "transferToken",
      "outputs": [],
      "stateMutability": "nonpayable",
      "type": "function"
    },
    {
      "inputs": [
        {
          "internalType": "address",
          "name": "newImplementation",
          "type": "address"
        }
      ],
      "name": "upgradeTo",
      "outputs": [],
      "stateMutability": "nonpayable",
      "type": "function"
    },
    {
      "inputs": [
        {
          "internalType": "address",
          "name": "newImplementation",
          "type": "address"
        },
        {
          "internalType": "bytes",
          "name": "data",
          "type": "bytes"
        }
      ],
      "name": "upgradeToAndCall",
      "outputs": [],
      "stateMutability": "payable",
      "type": "function"
    },
    {
      "inputs": [
        {
          "components": [
            {
              "internalType": "address",
              "name": "from",
              "type": "address"
            },
            {
              "internalType": "address",
              "name": "to",
              "type": "address"
            },
            {
              "internalType": "uint256",
              "name": "value",
              "type": "uint256"
            },
            {
              "internalType": "uint256",
              "name": "nonce",
              "type": "uint256"
            },
            {
              "internalType": "bytes",
              "name": "data",
              "type": "bytes"
            }
          ],
          "internalType": "struct Forwarder.ForwardRequest",
          "name": "req",
          "type": "tuple"
        },
        {
          "internalType": "bytes",
          "name": "signature",
          "type": "bytes"
        }
      ],
      "name": "verify",
      "outputs": [
        {
          "internalType": "bool",
          "name": "",
          "type": "bool"
        }
      ],
      "stateMutability": "view",
      "type": "function"
    },
    {
      "stateMutability": "payable",
      "type": "receive"
    }
  ],
  "bytecode": "0x60a06040523073ffffffffffffffffffffffffffffffffffffffff1660809073ffffffffffffffffffffffffffffffffffffffff1660601b81525034801561004657600080fd5b5060805160601c613cca61007a6000396000818161070401528181610793015281816108b301526109420152613cca6000f3fe6080604052600436106100ec5760003560e01c806369b37f4d1161008a5780638129fc1c116100595780638129fc1c146102e85780638da5cb5b146102f2578063f2fde38b1461031d578063f5537ede14610346576100f3565b806369b37f4d1461023b578063715018a6146102785780637507bd7a1461028f5780637b1a4909146102bf576100f3565b80633659cfe6116100c65780633659cfe61461018e5780634f1ef286146101b75780635b4dbfcc146101d35780635d2dab0b14610210576100f3565b806301918170146100f8578063150b7a02146101145780632d0335ab14610151576100f3565b366100f357005b600080fd5b610112600480360381019061010d9190612a38565b61036f565b005b34801561012057600080fd5b5061013b600480360381019061013691906128d5565b6106a3565b60405161014891906131b4565b60405180910390f35b34801561015d57600080fd5b5061017860048036038101906101739190612821565b6106b8565b6040516101859190613433565b60405180910390f35b34801561019a57600080fd5b506101b560048036038101906101b09190612821565b610702565b005b6101d160048036038101906101cc91906129e4565b6108b1565b005b3480156101df57600080fd5b506101fa60048036038101906101f59190612b46565b6109ee565b6040516102079190613085565b60405180910390f35b34801561021c57600080fd5b50610225610abb565b60405161023291906130a0565b60405180910390f35b34801561024757600080fd5b50610262600480360381019061025d9190612955565b610adf565b60405161026f91906130a0565b60405180910390f35b34801561028457600080fd5b5061028d610b4c565b005b6102a960048036038101906102a49190612ad6565b610bd4565b6040516102b691906131cf565b60405180910390f35b3480156102cb57600080fd5b506102e660048036038101906102e1919061284a565b610e3e565b005b6102f0610f1c565b005b3480156102fe57600080fd5b50610307611079565b6040516103149190613041565b60405180910390f35b34801561032957600080fd5b50610344600480360381019061033f9190612821565b6110a3565b005b34801561035257600080fd5b5061036d60048036038101906103689190612886565b61119b565b005b600260655414156103b5576040517f08c379a00000000000000000000000000000000000000000000000000000000081526004016103ac90613413565b60405180910390fd5b6002606581905550818190508484905014610405576040517f08c379a00000000000000000000000000000000000000000000000000000000081526004016103fc906133d3565b60405180910390fd5b60005b8484905081101561069457600085858381811061044e577f4e487b7100000000000000000000000000000000000000000000000000000000600052603260045260246000fd5b905060200281019061046091906134a5565b61046990613660565b905060008484848181106104a6577f4e487b7100000000000000000000000000000000000000000000000000000000600052603260045260246000fd5b90506020028101906104b8919061344e565b8080601f016020809104026020016040519081016040528093929190818152602001838380828437600081840152601f19601f82011690508083019250505050505050905061050782826109ee565b610546576040517f08c379a000000000000000000000000000000000000000000000000000000000815260040161053d906132f3565b60405180910390fd5b60018260600151610557919061356d565b61012f6000846000015173ffffffffffffffffffffffffffffffffffffffff1673ffffffffffffffffffffffffffffffffffffffff168152602001908152602001600020819055506000826020015173ffffffffffffffffffffffffffffffffffffffff168360400151846080015185600001516040516020016105dc929190612fe2565b6040516020818303038152906040526040516105f89190612fcb565b60006040518083038185875af1925050503d8060008114610635576040519150601f19603f3d011682016040523d82523d6000602084013e61063a565b606091505b505090508061067e576040517f08c379a000000000000000000000000000000000000000000000000000000000815260040161067590613373565b60405180910390fd5b505050808061068c906136e6565b915050610408565b50600160658190555050505050565b600063150b7a0260e01b905095945050505050565b600061012f60008373ffffffffffffffffffffffffffffffffffffffff1673ffffffffffffffffffffffffffffffffffffffff168152602001908152602001600020549050919050565b7f000000000000000000000000000000000000000000000000000000000000000073ffffffffffffffffffffffffffffffffffffffff163073ffffffffffffffffffffffffffffffffffffffff161415610791576040517f08c379a000000000000000000000000000000000000000000000000000000000815260040161078890613293565b60405180910390fd5b7f000000000000000000000000000000000000000000000000000000000000000073ffffffffffffffffffffffffffffffffffffffff166107d0611349565b73ffffffffffffffffffffffffffffffffffffffff1614610826576040517f08c379a000000000000000000000000000000000000000000000000000000000815260040161081d906132d3565b60405180910390fd5b61082f816113a0565b6108ae81600067ffffffffffffffff811115610874577f4e487b7100000000000000000000000000000000000000000000000000000000600052604160045260246000fd5b6040519080825280601f01601f1916602001820160405280156108a65781602001600182028036833780820191505090505b506000611418565b50565b7f000000000000000000000000000000000000000000000000000000000000000073ffffffffffffffffffffffffffffffffffffffff163073ffffffffffffffffffffffffffffffffffffffff161415610940576040517f08c379a000000000000000000000000000000000000000000000000000000000815260040161093790613293565b60405180910390fd5b7f000000000000000000000000000000000000000000000000000000000000000073ffffffffffffffffffffffffffffffffffffffff1661097f611349565b73ffffffffffffffffffffffffffffffffffffffff16146109d5576040517f08c379a00000000000000000000000000000000000000000000000000000000081526004016109cc906132d3565b60405180910390fd5b6109de826113a0565b6109ea82826001611418565b5050565b600080610a1284600001518560200151866040015187606001518860800151610adf565b90506000610a2984836115e990919063ffffffff16565b9050846060015161012f6000876000015173ffffffffffffffffffffffffffffffffffffffff1673ffffffffffffffffffffffffffffffffffffffff16815260200190815260200160002054148015610ab15750846000015173ffffffffffffffffffffffffffffffffffffffff168173ffffffffffffffffffffffffffffffffffffffff16145b9250505092915050565b7f37f69988ed101a80359fd1bf023dce4ccbafcaf14b772646dec9ad4f0d6bc1e281565b6000610b417f37f69988ed101a80359fd1bf023dce4ccbafcaf14b772646dec9ad4f0d6bc1e2878787878780519060200120604051602001610b26969594939291906130bb565b60405160208183030381529060405280519060200120611610565b905095945050505050565b610b5461162a565b73ffffffffffffffffffffffffffffffffffffffff16610b72611079565b73ffffffffffffffffffffffffffffffffffffffff1614610bc8576040517f08c379a0000000000000000000000000000000000000000000000000000000008152600401610bbf906133b3565b60405180910390fd5b610bd26000611632565b565b606060026065541415610c1c576040517f08c379a0000000000000000000000000000000000000000000000000000000008152600401610c1390613413565b60405180910390fd5b6002606581905550610c7b84610c3190613660565b84848080601f016020809104026020016040519081016040528093929190818152602001838380828437600081840152601f19601f820116905080830192505050505050506109ee565b610cba576040517f08c379a0000000000000000000000000000000000000000000000000000000008152600401610cb1906132f3565b60405180910390fd5b60018460600135610ccb919061356d565b61012f6000866000016020810190610ce39190612821565b73ffffffffffffffffffffffffffffffffffffffff1673ffffffffffffffffffffffffffffffffffffffff16815260200190815260200160002081905550600080856020016020810190610d379190612821565b73ffffffffffffffffffffffffffffffffffffffff168660400135878060800190610d62919061344e565b896000016020810190610d759190612821565b604051602001610d8793929190612fa1565b604051602081830303815290604052604051610da39190612fcb565b60006040518083038185875af1925050503d8060008114610de0576040519150601f19603f3d011682016040523d82523d6000602084013e610de5565b606091505b509150915081610e2a576040517f08c379a0000000000000000000000000000000000000000000000000000000008152600401610e2190613373565b60405180910390fd5b809250505060016065819055509392505050565b610e4661162a565b73ffffffffffffffffffffffffffffffffffffffff16610e64611079565b73ffffffffffffffffffffffffffffffffffffffff1614610eba576040517f08c379a0000000000000000000000000000000000000000000000000000000008152600401610eb1906133b3565b60405180910390fd5b6000811415610ec7574790505b6000811115610f18578173ffffffffffffffffffffffffffffffffffffffff166108fc829081150290604051600060405180830381858888f19350505050158015610f16573d6000803e3d6000fd5b505b5050565b600060019054906101000a900460ff1680610f42575060008054906101000a900460ff16155b610f81576040517f08c379a0000000000000000000000000000000000000000000000000000000008152600401610f7890613333565b60405180910390fd5b60008060019054906101000a900460ff161590508015610fd1576001600060016101000a81548160ff02191690831515021790555060016000806101000a81548160ff0219169083151502179055505b610fd96116f8565b610fe16117d9565b6110556040518060400160405280600981526020017f466f7277617264657200000000000000000000000000000000000000000000008152506040518060400160405280600381526020017f312e3000000000000000000000000000000000000000000000000000000000008152506118c2565b80156110765760008060016101000a81548160ff0219169083151502179055505b50565b600060fd60009054906101000a900473ffffffffffffffffffffffffffffffffffffffff16905090565b6110ab61162a565b73ffffffffffffffffffffffffffffffffffffffff166110c9611079565b73ffffffffffffffffffffffffffffffffffffffff161461111f576040517f08c379a0000000000000000000000000000000000000000000000000000000008152600401611116906133b3565b60405180910390fd5b600073ffffffffffffffffffffffffffffffffffffffff168173ffffffffffffffffffffffffffffffffffffffff16141561118f576040517f08c379a000000000000000000000000000000000000000000000000000000000815260040161118690613273565b60405180910390fd5b61119881611632565b50565b6111a361162a565b73ffffffffffffffffffffffffffffffffffffffff166111c1611079565b73ffffffffffffffffffffffffffffffffffffffff1614611217576040517f08c379a000000000000000000000000000000000000000000000000000000000815260040161120e906133b3565b60405180910390fd5b60008114156112ac578273ffffffffffffffffffffffffffffffffffffffff166370a08231306040518263ffffffff1660e01b81526004016112599190613041565b60206040518083038186803b15801561127157600080fd5b505afa158015611285573d6000803e3d6000fd5b505050506040513d601f19601f820116820180604052508101906112a99190612bb2565b90505b6000811115611344578273ffffffffffffffffffffffffffffffffffffffff1663a9059cbb83836040518363ffffffff1660e01b81526004016112f092919061305c565b602060405180830381600087803b15801561130a57600080fd5b505af115801561131e573d6000803e3d6000fd5b505050506040513d601f19601f820116820180604052508101906113429190612aad565b505b505050565b60006113777f360894a13ba1a3210667c828492db98dca3e2076cc3735a920a3ca505d382bbc60001b6119a7565b60000160009054906101000a900473ffffffffffffffffffffffffffffffffffffffff16905090565b6113a8611079565b73ffffffffffffffffffffffffffffffffffffffff163373ffffffffffffffffffffffffffffffffffffffff1614611415576040517f08c379a000000000000000000000000000000000000000000000000000000000815260040161140c90613313565b60405180910390fd5b50565b6000611422611349565b905061142d846119b1565b60008351118061143a5750815b1561144b576114498484611a6a565b505b60006114797f4910fdfa16fed3260ed0e7147f7cc6da11a60208b5b9406d12a635614ffd914360001b611b4e565b90508060000160009054906101000a900460ff166115e25760018160000160006101000a81548160ff02191690831515021790555061154585836040516024016114c39190613041565b6040516020818303038152906040527f3659cfe6000000000000000000000000000000000000000000000000000000007bffffffffffffffffffffffffffffffffffffffffffffffffffffffff19166020820180517bffffffffffffffffffffffffffffffffffffffffffffffffffffffff8381831617835250505050611a6a565b5060008160000160006101000a81548160ff02191690831515021790555061156b611349565b73ffffffffffffffffffffffffffffffffffffffff168273ffffffffffffffffffffffffffffffffffffffff16146115d8576040517f08c379a00000000000000000000000000000000000000000000000000000000081526004016115cf90613253565b60405180910390fd5b6115e185611b58565b5b5050505050565b60008060006115f88585611ba7565b9150915061160581611c2a565b819250505092915050565b600061162361161d611f7b565b83611fbb565b9050919050565b600033905090565b600060fd60009054906101000a900473ffffffffffffffffffffffffffffffffffffffff1690508160fd60006101000a81548173ffffffffffffffffffffffffffffffffffffffff021916908373ffffffffffffffffffffffffffffffffffffffff1602179055508173ffffffffffffffffffffffffffffffffffffffff168173ffffffffffffffffffffffffffffffffffffffff167f8be0079c531659141344cd1fd0a4f28419497f9722a3daafe3b4186f6b6457e060405160405180910390a35050565b600060019054906101000a900460ff168061171e575060008054906101000a900460ff16155b61175d576040517f08c379a000000000000000000000000000000000000000000000000000000000815260040161175490613333565b60405180910390fd5b60008060019054906101000a900460ff1615905080156117ad576001600060016101000a81548160ff02191690831515021790555060016000806101000a81548160ff0219169083151502179055505b6117b5611fee565b80156117d65760008060016101000a81548160ff0219169083151502179055505b50565b600060019054906101000a900460ff16806117ff575060008054906101000a900460ff16155b61183e576040517f08c379a000000000000000000000000000000000000000000000000000000000815260040161183590613333565b60405180910390fd5b60008060019054906101000a900460ff16159050801561188e576001600060016101000a81548160ff02191690831515021790555060016000806101000a81548160ff0219169083151502179055505b6118966120cf565b61189e6121a8565b80156118bf5760008060016101000a81548160ff0219169083151502179055505b50565b600060019054906101000a900460ff16806118e8575060008054906101000a900460ff16155b611927576040517f08c379a000000000000000000000000000000000000000000000000000000000815260040161191e90613333565b60405180910390fd5b60008060019054906101000a900460ff161590508015611977576001600060016101000a81548160ff02191690831515021790555060016000806101000a81548160ff0219169083151502179055505b6119818383612291565b80156119a25760008060016101000a81548160ff0219169083151502179055505b505050565b6000819050919050565b6119ba81612394565b6119f9576040517f08c379a00000000000000000000000000000000000000000000000000000000081526004016119f090613393565b60405180910390fd5b80611a267f360894a13ba1a3210667c828492db98dca3e2076cc3735a920a3ca505d382bbc60001b6119a7565b60000160006101000a81548173ffffffffffffffffffffffffffffffffffffffff021916908373ffffffffffffffffffffffffffffffffffffffff16021790555050565b6060611a7583612394565b611ab4576040517f08c379a0000000000000000000000000000000000000000000000000000000008152600401611aab906133f3565b60405180910390fd5b6000808473ffffffffffffffffffffffffffffffffffffffff1684604051611adc9190612fcb565b600060405180830381855af49150503d8060008114611b17576040519150601f19603f3d011682016040523d82523d6000602084013e611b1c565b606091505b5091509150611b448282604051806060016040528060278152602001613c6e602791396123a7565b9250505092915050565b6000819050919050565b611b61816119b1565b8073ffffffffffffffffffffffffffffffffffffffff167fbc7cd75a20ee27fd9adebab32041f755214dbc6bffa90cc0225b39da2e5c2d3b60405160405180910390a250565b600080604183511415611be95760008060006020860151925060408601519150606086015160001a9050611bdd8782858561240e565b94509450505050611c23565b604083511415611c1a576000806020850151915060408501519050611c0f86838361251b565b935093505050611c23565b60006002915091505b9250929050565b60006004811115611c64577f4e487b7100000000000000000000000000000000000000000000000000000000600052602160045260246000fd5b816004811115611c9d577f4e487b7100000000000000000000000000000000000000000000000000000000600052602160045260246000fd5b1415611ca857611f78565b60016004811115611ce2577f4e487b7100000000000000000000000000000000000000000000000000000000600052602160045260246000fd5b816004811115611d1b577f4e487b7100000000000000000000000000000000000000000000000000000000600052602160045260246000fd5b1415611d5c576040517f08c379a0000000000000000000000000000000000000000000000000000000008152600401611d5390613213565b60405180910390fd5b60026004811115611d96577f4e487b7100000000000000000000000000000000000000000000000000000000600052602160045260246000fd5b816004811115611dcf577f4e487b7100000000000000000000000000000000000000000000000000000000600052602160045260246000fd5b1415611e10576040517f08c379a0000000000000000000000000000000000000000000000000000000008152600401611e0790613233565b60405180910390fd5b60036004811115611e4a577f4e487b7100000000000000000000000000000000000000000000000000000000600052602160045260246000fd5b816004811115611e83577f4e487b7100000000000000000000000000000000000000000000000000000000600052602160045260246000fd5b1415611ec4576040517f08c379a0000000000000000000000000000000000000000000000000000000008152600401611ebb906132b3565b60405180910390fd5b600480811115611efd577f4e487b7100000000000000000000000000000000000000000000000000000000600052602160045260246000fd5b816004811115611f36577f4e487b7100000000000000000000000000000000000000000000000000000000600052602160045260246000fd5b1415611f77576040517f08c379a0000000000000000000000000000000000000000000000000000000008152600401611f6e90613353565b60405180910390fd5b5b50565b6000611fb67f8b73c3c69bb8fe3d512ecc4cf759cc79239f7b179b0ffacaa9a75d522b39400f611fa9612569565b611fb1612573565b61257d565b905090565b60008282604051602001611fd092919061300a565b60405160208183030381529060405280519060200120905092915050565b600060019054906101000a900460ff1680612014575060008054906101000a900460ff16155b612053576040517f08c379a000000000000000000000000000000000000000000000000000000000815260040161204a90613333565b60405180910390fd5b60008060019054906101000a900460ff1615905080156120a3576001600060016101000a81548160ff02191690831515021790555060016000806101000a81548160ff0219169083151502179055505b600160658190555080156120cc5760008060016101000a81548160ff0219169083151502179055505b50565b600060019054906101000a900460ff16806120f5575060008054906101000a900460ff16155b612134576040517f08c379a000000000000000000000000000000000000000000000000000000000815260040161212b90613333565b60405180910390fd5b60008060019054906101000a900460ff161590508015612184576001600060016101000a81548160ff02191690831515021790555060016000806101000a81548160ff0219169083151502179055505b80156121a55760008060016101000a81548160ff0219169083151502179055505b50565b600060019054906101000a900460ff16806121ce575060008054906101000a900460ff16155b61220d576040517f08c379a000000000000000000000000000000000000000000000000000000000815260040161220490613333565b60405180910390fd5b60008060019054906101000a900460ff16159050801561225d576001600060016101000a81548160ff02191690831515021790555060016000806101000a81548160ff0219169083151502179055505b61226d61226861162a565b611632565b801561228e5760008060016101000a81548160ff0219169083151502179055505b50565b600060019054906101000a900460ff16806122b7575060008054906101000a900460ff16155b6122f6576040517f08c379a00000000000000000000000000000000000000000000000000000000081526004016122ed90613333565b60405180910390fd5b60008060019054906101000a900460ff161590508015612346576001600060016101000a81548160ff02191690831515021790555060016000806101000a81548160ff0219169083151502179055505b60008380519060200120905060008380519060200120905081609781905550806098819055505050801561238f5760008060016101000a81548160ff0219169083151502179055505b505050565b600080823b905060008111915050919050565b606083156123b757829050612407565b6000835111156123ca5782518084602001fd5b816040517f08c379a00000000000000000000000000000000000000000000000000000000081526004016123fe91906131f1565b60405180910390fd5b9392505050565b6000807f7fffffffffffffffffffffffffffffff5d576e7357a4501ddfe92f46681b20a08360001c1115612449576000600391509150612512565b601b8560ff16141580156124615750601c8560ff1614155b15612473576000600491509150612512565b600060018787878760405160008152602001604052604051612498949392919061316f565b6020604051602081039080840390855afa1580156124ba573d6000803e3d6000fd5b505050602060405103519050600073ffffffffffffffffffffffffffffffffffffffff168173ffffffffffffffffffffffffffffffffffffffff16141561250957600060019250925050612512565b80600092509250505b94509492505050565b6000806000807f7fffffffffffffffffffffffffffffffffffffffffffffffffffffffffffffff85169150601b8560ff1c01905061255b8782888561240e565b935093505050935093915050565b6000609754905090565b6000609854905090565b6000838383463060405160200161259895949392919061311c565b6040516020818303038152906040528051906020012090509392505050565b60006125ca6125c5846134ee565b6134c9565b9050828152602081018484840111156125e257600080fd5b6125ed848285613673565b509392505050565b60008135905061260481613c11565b92915050565b60008135905061261981613c28565b92915050565b60008083601f84011261263157600080fd5b8235905067ffffffffffffffff81111561264a57600080fd5b60208301915083602082028301111561266257600080fd5b9250929050565b60008083601f84011261267b57600080fd5b8235905067ffffffffffffffff81111561269457600080fd5b6020830191508360208202830111156126ac57600080fd5b9250929050565b6000815190506126c281613c3f565b92915050565b60008083601f8401126126da57600080fd5b8235905067ffffffffffffffff8111156126f357600080fd5b60208301915083600182028301111561270b57600080fd5b9250929050565b600082601f83011261272357600080fd5b81356127338482602086016125b7565b91505092915050565b600060a0828403121561274e57600080fd5b81905092915050565b600060a0828403121561276957600080fd5b61277360a06134c9565b90506000612783848285016125f5565b6000830152506020612797848285016125f5565b60208301525060406127ab848285016127f7565b60408301525060606127bf848285016127f7565b606083015250608082013567ffffffffffffffff8111156127df57600080fd5b6127eb84828501612712565b60808301525092915050565b60008135905061280681613c56565b92915050565b60008151905061281b81613c56565b92915050565b60006020828403121561283357600080fd5b6000612841848285016125f5565b91505092915050565b6000806040838503121561285d57600080fd5b600061286b8582860161260a565b925050602061287c858286016127f7565b9150509250929050565b60008060006060848603121561289b57600080fd5b60006128a9868287016125f5565b93505060206128ba868287016125f5565b92505060406128cb868287016127f7565b9150509250925092565b6000806000806000608086880312156128ed57600080fd5b60006128fb888289016125f5565b955050602061290c888289016125f5565b945050604061291d888289016127f7565b935050606086013567ffffffffffffffff81111561293a57600080fd5b612946888289016126c8565b92509250509295509295909350565b600080600080600060a0868803121561296d57600080fd5b600061297b888289016125f5565b955050602061298c888289016125f5565b945050604061299d888289016127f7565b93505060606129ae888289016127f7565b925050608086013567ffffffffffffffff8111156129cb57600080fd5b6129d788828901612712565b9150509295509295909350565b600080604083850312156129f757600080fd5b6000612a05858286016125f5565b925050602083013567ffffffffffffffff811115612a2257600080fd5b612a2e85828601612712565b9150509250929050565b60008060008060408587031215612a4e57600080fd5b600085013567ffffffffffffffff811115612a6857600080fd5b612a7487828801612669565b9450945050602085013567ffffffffffffffff811115612a9357600080fd5b612a9f8782880161261f565b925092505092959194509250565b600060208284031215612abf57600080fd5b6000612acd848285016126b3565b91505092915050565b600080600060408486031215612aeb57600080fd5b600084013567ffffffffffffffff811115612b0557600080fd5b612b118682870161273c565b935050602084013567ffffffffffffffff811115612b2e57600080fd5b612b3a868287016126c8565b92509250509250925092565b60008060408385031215612b5957600080fd5b600083013567ffffffffffffffff811115612b7357600080fd5b612b7f85828601612757565b925050602083013567ffffffffffffffff811115612b9c57600080fd5b612ba885828601612712565b9150509250929050565b600060208284031215612bc457600080fd5b6000612bd28482850161280c565b91505092915050565b612be4816135c3565b82525050565b612bfb612bf6826135c3565b61372f565b82525050565b612c0a816135e7565b82525050565b612c19816135f3565b82525050565b612c30612c2b826135f3565b613741565b82525050565b612c3f816135fd565b82525050565b6000612c518385613546565b9350612c5e838584613673565b82840190509392505050565b6000612c758261351f565b612c7f8185613535565b9350612c8f818560208601613682565b612c98816137bb565b840191505092915050565b6000612cae8261351f565b612cb88185613546565b9350612cc8818560208601613682565b80840191505092915050565b6000612cdf8261352a565b612ce98185613551565b9350612cf9818560208601613682565b612d02816137bb565b840191505092915050565b6000612d1a601883613551565b9150612d25826137d9565b602082019050919050565b6000612d3d601f83613551565b9150612d4882613802565b602082019050919050565b6000612d60602f83613551565b9150612d6b8261382b565b604082019050919050565b6000612d83602683613551565b9150612d8e8261387a565b604082019050919050565b6000612da6600283613562565b9150612db1826138c9565b600282019050919050565b6000612dc9602c83613551565b9150612dd4826138f2565b604082019050919050565b6000612dec602283613551565b9150612df782613941565b604082019050919050565b6000612e0f602c83613551565b9150612e1a82613990565b604082019050919050565b6000612e32601883613551565b9150612e3d826139df565b602082019050919050565b6000612e55600783613551565b9150612e6082613a08565b602082019050919050565b6000612e78602e83613551565b9150612e8382613a31565b604082019050919050565b6000612e9b602283613551565b9150612ea682613a80565b604082019050919050565b6000612ebe600683613551565b9150612ec982613acf565b602082019050919050565b6000612ee1602d83613551565b9150612eec82613af8565b604082019050919050565b6000612f04602083613551565b9150612f0f82613b47565b602082019050919050565b6000612f27601083613551565b9150612f3282613b70565b602082019050919050565b6000612f4a602683613551565b9150612f5582613b99565b604082019050919050565b6000612f6d601f83613551565b9150612f7882613be8565b602082019050919050565b612f8c81613649565b82525050565b612f9b81613653565b82525050565b6000612fae828587612c45565b9150612fba8284612bea565b601482019150819050949350505050565b6000612fd78284612ca3565b915081905092915050565b6000612fee8285612ca3565b9150612ffa8284612bea565b6014820191508190509392505050565b600061301582612d99565b91506130218285612c1f565b6020820191506130318284612c1f565b6020820191508190509392505050565b60006020820190506130566000830184612bdb565b92915050565b60006040820190506130716000830185612bdb565b61307e6020830184612f83565b9392505050565b600060208201905061309a6000830184612c01565b92915050565b60006020820190506130b56000830184612c10565b92915050565b600060c0820190506130d06000830189612c10565b6130dd6020830188612bdb565b6130ea6040830187612bdb565b6130f76060830186612f83565b6131046080830185612f83565b61311160a0830184612c10565b979650505050505050565b600060a0820190506131316000830188612c10565b61313e6020830187612c10565b61314b6040830186612c10565b6131586060830185612f83565b6131656080830184612bdb565b9695505050505050565b60006080820190506131846000830187612c10565b6131916020830186612f92565b61319e6040830185612c10565b6131ab6060830184612c10565b95945050505050565b60006020820190506131c96000830184612c36565b92915050565b600060208201905081810360008301526131e98184612c6a565b905092915050565b6000602082019050818103600083015261320b8184612cd4565b905092915050565b6000602082019050818103600083015261322c81612d0d565b9050919050565b6000602082019050818103600083015261324c81612d30565b9050919050565b6000602082019050818103600083015261326c81612d53565b9050919050565b6000602082019050818103600083015261328c81612d76565b9050919050565b600060208201905081810360008301526132ac81612dbc565b9050919050565b600060208201905081810360008301526132cc81612ddf565b9050919050565b600060208201905081810360008301526132ec81612e02565b9050919050565b6000602082019050818103600083015261330c81612e25565b9050919050565b6000602082019050818103600083015261332c81612e48565b9050919050565b6000602082019050818103600083015261334c81612e6b565b9050919050565b6000602082019050818103600083015261336c81612e8e565b9050919050565b6000602082019050818103600083015261338c81612eb1565b9050919050565b600060208201905081810360008301526133ac81612ed4565b9050919050565b600060208201905081810360008301526133cc81612ef7565b9050919050565b600060208201905081810360008301526133ec81612f1a565b9050919050565b6000602082019050818103600083015261340c81612f3d565b9050919050565b6000602082019050818103600083015261342c81612f60565b9050919050565b60006020820190506134486000830184612f83565b92915050565b6000808335600160200384360303811261346757600080fd5b80840192508235915067ffffffffffffffff82111561348557600080fd5b60208301925060018202360383131561349d57600080fd5b509250929050565b60008235600160a0038336030381126134bd57600080fd5b80830191505092915050565b60006134d36134e4565b90506134df82826136b5565b919050565b6000604051905090565b600067ffffffffffffffff8211156135095761350861378c565b5b613512826137bb565b9050602081019050919050565b600081519050919050565b600081519050919050565b600082825260208201905092915050565b600081905092915050565b600082825260208201905092915050565b600081905092915050565b600061357882613649565b915061358383613649565b9250827fffffffffffffffffffffffffffffffffffffffffffffffffffffffffffffffff038211156135b8576135b761375d565b5b828201905092915050565b60006135ce82613629565b9050919050565b60006135e082613629565b9050919050565b60008115159050919050565b6000819050919050565b60007fffffffff0000000000000000000000000000000000000000000000000000000082169050919050565b600073ffffffffffffffffffffffffffffffffffffffff82169050919050565b6000819050919050565b600060ff82169050919050565b600061366c3683612757565b9050919050565b82818337600083830152505050565b60005b838110156136a0578082015181840152602081019050613685565b838111156136af576000848401525b50505050565b6136be826137bb565b810181811067ffffffffffffffff821117156136dd576136dc61378c565b5b80604052505050565b60006136f182613649565b91507fffffffffffffffffffffffffffffffffffffffffffffffffffffffffffffffff8214156137245761372361375d565b5b600182019050919050565b600061373a8261374b565b9050919050565b6000819050919050565b6000613756826137cc565b9050919050565b7f4e487b7100000000000000000000000000000000000000000000000000000000600052601160045260246000fd5b7f4e487b7100000000000000000000000000000000000000000000000000000000600052604160045260246000fd5b6000601f19601f8301169050919050565b60008160601b9050919050565b7f45434453413a20696e76616c6964207369676e61747572650000000000000000600082015250565b7f45434453413a20696e76616c6964207369676e6174757265206c656e67746800600082015250565b7f45524331393637557067726164653a207570677261646520627265616b73206660008201527f7572746865722075706772616465730000000000000000000000000000000000602082015250565b7f4f776e61626c653a206e6577206f776e657220697320746865207a65726f206160008201527f6464726573730000000000000000000000000000000000000000000000000000602082015250565b7f1901000000000000000000000000000000000000000000000000000000000000600082015250565b7f46756e6374696f6e206d7573742062652063616c6c6564207468726f7567682060008201527f64656c656761746563616c6c0000000000000000000000000000000000000000602082015250565b7f45434453413a20696e76616c6964207369676e6174757265202773272076616c60008201527f7565000000000000000000000000000000000000000000000000000000000000602082015250565b7f46756e6374696f6e206d7573742062652063616c6c6564207468726f7567682060008201527f6163746976652070726f78790000000000000000000000000000000000000000602082015250565b7f7369676e617475726520646f6573206e6f74206d617463680000000000000000600082015250565b7f6e6f206175746800000000000000000000000000000000000000000000000000600082015250565b7f496e697469616c697a61626c653a20636f6e747261637420697320616c72656160008201527f647920696e697469616c697a6564000000000000000000000000000000000000602082015250565b7f45434453413a20696e76616c6964207369676e6174757265202776272076616c60008201527f7565000000000000000000000000000000000000000000000000000000000000602082015250565b7f6661696c65640000000000000000000000000000000000000000000000000000600082015250565b7f455243313936373a206e657720696d706c656d656e746174696f6e206973206e60008201527f6f74206120636f6e747261637400000000000000000000000000000000000000602082015250565b7f4f776e61626c653a2063616c6c6572206973206e6f7420746865206f776e6572600082015250565b7f6c656e677468204e4f5420657175616c00000000000000000000000000000000600082015250565b7f416464726573733a2064656c65676174652063616c6c20746f206e6f6e2d636f60008201527f6e74726163740000000000000000000000000000000000000000000000000000602082015250565b7f5265656e7472616e637947756172643a207265656e7472616e742063616c6c00600082015250565b613c1a816135c3565b8114613c2557600080fd5b50565b613c31816135d5565b8114613c3c57600080fd5b50565b613c48816135e7565b8114613c5357600080fd5b50565b613c5f81613649565b8114613c6a57600080fd5b5056fe416464726573733a206c6f772d6c6576656c2064656c65676174652063616c6c206661696c6564a264697066735822122017f0a65dc717855401518a760632f7b917c150b9f9c7580e13fdfa913daa45ac64736f6c63430008040033",
  "linkReferences": {},
  "deployedLinkReferences": {}
}